{
  "contractName": "ERC20V3Factory",
  "abi": [
    {
      "inputs": [
        {
          "internalType": "address",
          "name": "cloneFactory",
          "type": "address"
        },
        {
          "internalType": "address",
          "name": "erc20Template",
          "type": "address"
        },
        {
          "internalType": "address",
          "name": "customErc20Template",
          "type": "address"
        },
        {
          "internalType": "address",
          "name": "customMintableErc20Template",
          "type": "address"
        },
        {
          "internalType": "uint256",
          "name": "createFee",
          "type": "uint256"
        }
      ],
      "stateMutability": "nonpayable",
      "type": "constructor"
    },
    {
      "anonymous": false,
      "inputs": [
        {
          "indexed": false,
          "internalType": "uint256",
          "name": "newFee",
          "type": "uint256"
        }
      ],
      "name": "ChangeCreateFee",
      "type": "event"
    },
    {
      "anonymous": false,
      "inputs": [
        {
          "indexed": false,
          "internalType": "address",
          "name": "newCustomMintableTemplate",
          "type": "address"
        }
      ],
      "name": "ChangeCustomMintableTemplate",
      "type": "event"
    },
    {
      "anonymous": false,
      "inputs": [
        {
          "indexed": false,
          "internalType": "address",
          "name": "newCustomTemplate",
          "type": "address"
        }
      ],
      "name": "ChangeCustomTemplate",
      "type": "event"
    },
    {
      "anonymous": false,
      "inputs": [
        {
          "indexed": false,
          "internalType": "address",
          "name": "newStdTemplate",
          "type": "address"
        }
      ],
      "name": "ChangeStdTemplate",
      "type": "event"
    },
    {
      "anonymous": false,
      "inputs": [
        {
          "indexed": false,
          "internalType": "address",
          "name": "erc20",
          "type": "address"
        },
        {
          "indexed": false,
          "internalType": "address",
          "name": "creator",
          "type": "address"
        },
        {
          "indexed": false,
          "internalType": "uint256",
          "name": "erc20Type",
          "type": "uint256"
        }
      ],
      "name": "NewERC20",
      "type": "event"
    },
    {
      "anonymous": false,
      "inputs": [
        {
          "indexed": true,
          "internalType": "address",
          "name": "previousOwner",
          "type": "address"
        },
        {
          "indexed": true,
          "internalType": "address",
          "name": "newOwner",
          "type": "address"
        }
      ],
      "name": "OwnershipTransferPrepared",
      "type": "event"
    },
    {
      "anonymous": false,
      "inputs": [
        {
          "indexed": true,
          "internalType": "address",
          "name": "previousOwner",
          "type": "address"
        },
        {
          "indexed": true,
          "internalType": "address",
          "name": "newOwner",
          "type": "address"
        }
      ],
      "name": "OwnershipTransferred",
      "type": "event"
    },
    {
      "anonymous": false,
      "inputs": [
        {
          "indexed": false,
          "internalType": "address",
          "name": "account",
          "type": "address"
        },
        {
          "indexed": false,
          "internalType": "uint256",
          "name": "amount",
          "type": "uint256"
        }
      ],
      "name": "Withdraw",
      "type": "event"
    },
    {
      "stateMutability": "payable",
      "type": "fallback"
    },
    {
      "inputs": [],
      "name": "_CLONE_FACTORY_",
      "outputs": [
        {
          "internalType": "address",
          "name": "",
          "type": "address"
        }
      ],
      "stateMutability": "view",
      "type": "function"
    },
    {
      "inputs": [],
      "name": "_CREATE_FEE_",
      "outputs": [
        {
          "internalType": "uint256",
          "name": "",
          "type": "uint256"
        }
      ],
      "stateMutability": "view",
      "type": "function"
    },
    {
      "inputs": [],
      "name": "_CUSTOM_ERC20_TEMPLATE_",
      "outputs": [
        {
          "internalType": "address",
          "name": "",
          "type": "address"
        }
      ],
      "stateMutability": "view",
      "type": "function"
    },
    {
      "inputs": [],
      "name": "_CUSTOM_MINTABLE_ERC20_TEMPLATE_",
      "outputs": [
        {
          "internalType": "address",
          "name": "",
          "type": "address"
        }
      ],
      "stateMutability": "view",
      "type": "function"
    },
    {
      "inputs": [],
      "name": "_ERC20_TEMPLATE_",
      "outputs": [
        {
          "internalType": "address",
          "name": "",
          "type": "address"
        }
      ],
      "stateMutability": "view",
      "type": "function"
    },
    {
      "inputs": [],
      "name": "_NEW_OWNER_",
      "outputs": [
        {
          "internalType": "address",
          "name": "",
          "type": "address"
        }
      ],
      "stateMutability": "view",
      "type": "function"
    },
    {
      "inputs": [],
      "name": "_OWNER_",
      "outputs": [
        {
          "internalType": "address",
          "name": "",
          "type": "address"
        }
      ],
      "stateMutability": "view",
      "type": "function"
    },
    {
      "inputs": [
        {
          "internalType": "address",
          "name": "",
          "type": "address"
        },
        {
          "internalType": "uint256",
          "name": "",
          "type": "uint256"
        }
      ],
      "name": "_USER_CUSTOM_MINTABLE_REGISTRY_",
      "outputs": [
        {
          "internalType": "address",
          "name": "",
          "type": "address"
        }
      ],
      "stateMutability": "view",
      "type": "function"
    },
    {
      "inputs": [
        {
          "internalType": "address",
          "name": "",
          "type": "address"
        },
        {
          "internalType": "uint256",
          "name": "",
          "type": "uint256"
        }
      ],
      "name": "_USER_CUSTOM_REGISTRY_",
      "outputs": [
        {
          "internalType": "address",
          "name": "",
          "type": "address"
        }
      ],
      "stateMutability": "view",
      "type": "function"
    },
    {
      "inputs": [
        {
          "internalType": "address",
          "name": "",
          "type": "address"
        },
        {
          "internalType": "uint256",
          "name": "",
          "type": "uint256"
        }
      ],
      "name": "_USER_STD_REGISTRY_",
      "outputs": [
        {
          "internalType": "address",
          "name": "",
          "type": "address"
        }
      ],
      "stateMutability": "view",
      "type": "function"
    },
    {
      "inputs": [],
      "name": "claimOwnership",
      "outputs": [],
      "stateMutability": "nonpayable",
      "type": "function"
    },
    {
      "inputs": [
        {
          "internalType": "address",
          "name": "newOwner",
          "type": "address"
        }
      ],
      "name": "initOwner",
      "outputs": [],
      "stateMutability": "nonpayable",
      "type": "function"
    },
    {
      "inputs": [
        {
          "internalType": "address",
          "name": "newOwner",
          "type": "address"
        }
      ],
      "name": "transferOwnership",
      "outputs": [],
      "stateMutability": "nonpayable",
      "type": "function"
    },
    {
      "stateMutability": "payable",
      "type": "receive"
    },
    {
      "inputs": [
        {
          "internalType": "uint256",
          "name": "totalSupply",
          "type": "uint256"
        },
        {
          "internalType": "string",
          "name": "name",
          "type": "string"
        },
        {
          "internalType": "string",
          "name": "symbol",
          "type": "string"
        },
        {
          "internalType": "uint8",
          "name": "decimals",
          "type": "uint8"
        }
      ],
      "name": "createStdERC20",
      "outputs": [
        {
          "internalType": "address",
          "name": "newERC20",
          "type": "address"
        }
      ],
      "stateMutability": "payable",
      "type": "function"
    },
    {
      "inputs": [
        {
          "internalType": "uint256",
          "name": "totalSupply",
          "type": "uint256"
        },
        {
          "internalType": "string",
          "name": "name",
          "type": "string"
        },
        {
          "internalType": "string",
          "name": "symbol",
          "type": "string"
        },
        {
          "internalType": "uint8",
          "name": "decimals",
          "type": "uint8"
        },
        {
          "internalType": "uint256",
          "name": "tradeBurnRatio",
          "type": "uint256"
        },
        {
          "internalType": "uint256",
          "name": "tradeFeeRatio",
          "type": "uint256"
        },
        {
          "internalType": "address",
          "name": "teamAccount",
          "type": "address"
        }
      ],
      "name": "createCustomERC20",
      "outputs": [
        {
          "internalType": "address",
          "name": "newCustomERC20",
          "type": "address"
        }
      ],
      "stateMutability": "payable",
      "type": "function"
    },
    {
      "inputs": [
        {
          "internalType": "uint256",
          "name": "initSupply",
          "type": "uint256"
        },
        {
          "internalType": "string",
          "name": "name",
          "type": "string"
        },
        {
          "internalType": "string",
          "name": "symbol",
          "type": "string"
        },
        {
          "internalType": "uint8",
          "name": "decimals",
          "type": "uint8"
        },
        {
          "internalType": "uint256",
          "name": "tradeBurnRatio",
          "type": "uint256"
        },
        {
          "internalType": "uint256",
          "name": "tradeFeeRatio",
          "type": "uint256"
        },
        {
          "internalType": "address",
          "name": "teamAccount",
          "type": "address"
        }
      ],
      "name": "createCustomMintableERC20",
      "outputs": [
        {
          "internalType": "address",
          "name": "newCustomMintableERC20",
          "type": "address"
        }
      ],
      "stateMutability": "payable",
      "type": "function"
    },
    {
      "inputs": [
        {
          "internalType": "address",
          "name": "user",
          "type": "address"
        }
      ],
      "name": "getTokenByUser",
      "outputs": [
        {
          "internalType": "address[]",
          "name": "stds",
          "type": "address[]"
        },
        {
          "internalType": "address[]",
          "name": "customs",
          "type": "address[]"
        },
        {
          "internalType": "address[]",
          "name": "mintables",
          "type": "address[]"
        }
      ],
      "stateMutability": "view",
      "type": "function"
    },
    {
      "inputs": [
        {
          "internalType": "uint256",
          "name": "newFee",
          "type": "uint256"
        }
      ],
      "name": "changeCreateFee",
      "outputs": [],
      "stateMutability": "nonpayable",
      "type": "function"
    },
    {
      "inputs": [],
      "name": "withdraw",
      "outputs": [],
      "stateMutability": "nonpayable",
      "type": "function"
    },
    {
      "inputs": [
        {
          "internalType": "address",
          "name": "newStdTemplate",
          "type": "address"
        }
      ],
      "name": "updateStdTemplate",
      "outputs": [],
      "stateMutability": "nonpayable",
      "type": "function"
    },
    {
      "inputs": [
        {
          "internalType": "address",
          "name": "newCustomTemplate",
          "type": "address"
        }
      ],
      "name": "updateCustomTemplate",
      "outputs": [],
      "stateMutability": "nonpayable",
      "type": "function"
    },
    {
      "inputs": [
        {
          "internalType": "address",
          "name": "newCustomMintableTemplate",
          "type": "address"
        }
      ],
      "name": "updateCustomMintableTemplate",
      "outputs": [],
      "stateMutability": "nonpayable",
      "type": "function"
    }
  ],
  "bytecode": "0x60a06040523480156200001157600080fd5b506040516200165138038062001651833981016040819052620000349162000092565b6c01000000000000000000000000600160a060020a039586160260805260028054948616600160a060020a0319958616179055600380549386169385169390931790925560048054919094169216919091179091556005556200011e565b600080600080600060a08688031215620000aa578081fd5b8551620000b78162000105565b6020870151909550620000ca8162000105565b6040870151909450620000dd8162000105565b6060870151909350620000f08162000105565b80925050608086015190509295509295909350565b600160a060020a03811681146200011b57600080fd5b50565b6080516c0100000000000000000000000090046114f9620001586000398061063652806109555280610ba85280610f0952506114f96000f3fe608060405260043610610156576000357c01000000000000000000000000000000000000000000000000000000009004806397381760116100c8578063ca7caaad1161008c578063ca7caaad1461030e578063d029d5211461032e578063e1f70b6b1461035d578063e6acc72d14610372578063eb774d0514610392578063f2fde38b146103a75761015d565b8063973817601461029e578063aae79d0c146102b3578063aef08a54146102c8578063afa16b40146102db578063c3223a18146102fb5761015d565b806335c70da01161011a57806335c70da01461020c5780633ccfd60b1461022c578063425a70ef1461024157806347b3f0e3146102545780634e71e0c8146102745780638456db15146102895761015d565b8063051396ff1461015f5780630d0092971461019557806316048bc4146101b557806321235d4a146101ca57806328ab047f146101ec5761015d565b3661015d57005b005b34801561016b57600080fd5b5061017f61017a366004611087565b6103c7565b60405161018c9190611278565b60405180910390f35b3480156101a157600080fd5b5061015d6101b0366004611048565b6103fc565b3480156101c157600080fd5b5061017f61049b565b3480156101d657600080fd5b506101df6104aa565b60405161018c91906114a2565b3480156101f857600080fd5b5061015d610207366004611048565b6104b0565b34801561021857600080fd5b5061017f610227366004611087565b610533565b34801561023857600080fd5b5061015d61054c565b61017f61024f366004611146565b6105db565b34801561026057600080fd5b5061015d61026f366004611048565b6107c5565b34801561028057600080fd5b5061015d61083d565b34801561029557600080fd5b5061017f6108ce565b3480156102aa57600080fd5b5061017f6108dd565b3480156102bf57600080fd5b5061017f6108ec565b61017f6102d6366004611146565b6108fb565b3480156102e757600080fd5b5061015d6102f6366004611048565b610ad6565b61017f6103093660046110ca565b610b4e565b34801561031a57600080fd5b5061017f610329366004611087565b610d31565b34801561033a57600080fd5b5061034e610349366004611048565b610d4a565b60405161018c93929190611384565b34801561036957600080fd5b5061017f610e96565b34801561037e57600080fd5b5061015d61038d3660046110b2565b610ea5565b34801561039e57600080fd5b5061017f610f07565b3480156103b357600080fd5b5061015d6103c2366004611048565b610f2b565b600760205281600052604060002081815481106103e057fe5b600091825260209091200154600160a060020a03169150829050565b60015474010000000000000000000000000000000000000000900460ff16156104435760405160e560020a62461bcd02815260040161043a90611434565b60405180910390fd5b6001805474ff000000000000000000000000000000000000000019167401000000000000000000000000000000000000000017905560008054600160a060020a03909216600160a060020a0319909216919091179055565b600054600160a060020a031681565b60055481565b600054600160a060020a031633146104dd5760405160e560020a62461bcd02815260040161043a9061146b565b60028054600160a060020a031916600160a060020a0383161790556040517fedc968a09f964f0ab07f91c96dd61bbfd3ce2b438ede9e63721d56867ea5336590610528908390611278565b60405180910390a150565b600660205281600052604060002081815481106103e057fe5b600054600160a060020a031633146105795760405160e560020a62461bcd02815260040161043a9061146b565b604051303190339082156108fc029083906000818181858888f193505050501580156105a9573d6000803e3d6000fd5b507f884edad9ce6fa2440d8a54cc123490eb96d2768479d49ff9c7366125a9424364338260405161052892919061128c565b60006005543410156106025760405160e560020a62461bcd02815260040161043a906113fd565b600480546040517f8124b78e000000000000000000000000000000000000000000000000000000008152600160a060020a037f0000000000000000000000000000000000000000000000000000000000000000811693638124b78e9361066b9392169101611278565b602060405180830381600087803b15801561068557600080fd5b505af1158015610699573d6000803e3d6000fd5b505050506040513d601f19601f820116820180604052508101906106bd919061106b565b6040517f4ca60825000000000000000000000000000000000000000000000000000000008152909150600160a060020a03821690634ca60825906107139033908c908c908c908c908c908c908c906004016112f5565b600060405180830381600087803b15801561072d57600080fd5b505af1158015610741573d6000803e3d6000fd5b5050336000818152600860209081526040808320805460018101825590845291909220018054600160a060020a031916600160a060020a038716179055517f1393d5edd44c8974d9f4be5f459e4f6c6c67917e4400784fc61d8a0872a9fc3893506107b29250849190600290611360565b60405180910390a1979650505050505050565b600054600160a060020a031633146107f25760405160e560020a62461bcd02815260040161043a9061146b565b60048054600160a060020a031916600160a060020a0383161790556040517f1689dd58380943f413ccf540c7f8f63eac346f39503653f23cb96ffdb5079f1090610528908390611278565b600154600160a060020a0316331461086a5760405160e560020a62461bcd02815260040161043a906113c6565b60015460008054604051600160a060020a0393841693909116917f8be0079c531659141344cd1fd0a4f28419497f9722a3daafe3b4186f6b6457e091a36001805460008054600160a060020a0319908116600160a060020a03841617909155169055565b600154600160a060020a031681565b600254600160a060020a031681565b600354600160a060020a031681565b60006005543410156109225760405160e560020a62461bcd02815260040161043a906113fd565b6003546040517f8124b78e000000000000000000000000000000000000000000000000000000008152600160a060020a037f0000000000000000000000000000000000000000000000000000000000000000811692638124b78e9261098e929190911690600401611278565b602060405180830381600087803b1580156109a857600080fd5b505af11580156109bc573d6000803e3d6000fd5b505050506040513d601f19601f820116820180604052508101906109e0919061106b565b6040517f4ca60825000000000000000000000000000000000000000000000000000000008152909150600160a060020a03821690634ca6082590610a369033908c908c908c908c908c908c908c906004016112f5565b600060405180830381600087803b158015610a5057600080fd5b505af1158015610a64573d6000803e3d6000fd5b5050336000818152600760209081526040808320805460018082018355918552929093209091018054600160a060020a031916600160a060020a038816179055517f1393d5edd44c8974d9f4be5f459e4f6c6c67917e4400784fc61d8a0872a9fc3894506107b2935085929190611360565b600054600160a060020a03163314610b035760405160e560020a62461bcd02815260040161043a9061146b565b60038054600160a060020a031916600160a060020a0383161790556040517fc4c30c18f3faff717bb7f2aeb67ee7b86c03183f60d589bb0864799cfa2da2f590610528908390611278565b6000600554341015610b755760405160e560020a62461bcd02815260040161043a906113fd565b6002546040517f8124b78e000000000000000000000000000000000000000000000000000000008152600160a060020a037f0000000000000000000000000000000000000000000000000000000000000000811692638124b78e92610be1929190911690600401611278565b602060405180830381600087803b158015610bfb57600080fd5b505af1158015610c0f573d6000803e3d6000fd5b505050506040513d601f19601f82011682018060405250810190610c33919061106b565b6040517ffc90ef18000000000000000000000000000000000000000000000000000000008152909150600160a060020a0382169063fc90ef1890610c8390339089908990899089906004016112a5565b600060405180830381600087803b158015610c9d57600080fd5b505af1158015610cb1573d6000803e3d6000fd5b505033600081815260066020908152604080832080546001810182559084529183209091018054600160a060020a031916600160a060020a038816179055517f1393d5edd44c8974d9f4be5f459e4f6c6c67917e4400784fc61d8a0872a9fc389450610d21935085929190611360565b60405180910390a1949350505050565b600860205281600052604060002081815481106103e057fe5b600160a060020a03811660009081526006602090815260408083206007835281842060088452938290208154835181860281018601909452808452606095869586959193928591830182828015610dca57602002820191906000526020600020905b8154600160a060020a03168152600190910190602001808311610dac575b5050505050925081805480602002602001604051908101604052809291908181526020018280548015610e2657602002820191906000526020600020905b8154600160a060020a03168152600190910190602001808311610e08575b5050505050915080805480602002602001604051908101604052809291908181526020018280548015610e8257602002820191906000526020600020905b8154600160a060020a03168152600190910190602001808311610e64575b505050505090509250925092509193909250565b600454600160a060020a031681565b600054600160a060020a03163314610ed25760405160e560020a62461bcd02815260040161043a9061146b565b60058190556040517fe2a626dd21b2ca43b97ef589791d30517db1c9676631e68d57b444e2e1826909906105289083906114a2565b7f000000000000000000000000000000000000000000000000000000000000000081565b600054600160a060020a03163314610f585760405160e560020a62461bcd02815260040161043a9061146b565b60008054604051600160a060020a03808516939216917fdcf55418cee3220104fef63f979ff3c4097ad240c0c43dcb33ce837748983e6291a360018054600160a060020a031916600160a060020a0392909216919091179055565b600082601f830112610fc3578081fd5b813567ffffffffffffffff80821115610fda578283fd5b604051601f8301601f191681016020018281118282101715610ffa578485fd5b60405282815292508284830160200186101561101557600080fd5b8260208601602083013760006020848301015250505092915050565b803560ff8116811461104257600080fd5b92915050565b600060208284031215611059578081fd5b8135611064816114ab565b9392505050565b60006020828403121561107c578081fd5b8151611064816114ab565b60008060408385031215611099578081fd5b82356110a4816114ab565b946020939093013593505050565b6000602082840312156110c3578081fd5b5035919050565b600080600080608085870312156110df578182fd5b84359350602085013567ffffffffffffffff808211156110fd578384fd5b61110988838901610fb3565b9450604087013591508082111561111e578384fd5b5061112b87828801610fb3565b92505061113b8660608701611031565b905092959194509250565b600080600080600080600060e0888a031215611160578283fd5b87359650602088013567ffffffffffffffff8082111561117e578485fd5b61118a8b838c01610fb3565b975060408a013591508082111561119f578485fd5b506111ac8a828b01610fb3565b9550506111bc8960608a01611031565b93506080880135925060a0880135915060c08801356111da816114ab565b8091505092959891949750929550565b6000815180845260208085019450808401835b83811015611222578151600160a060020a0316875295820195908201906001016111fd565b509495945050505050565b60008151808452815b8181101561125257602081850181015186830182015201611236565b818111156112635782602083870101525b50601f01601f19169290920160200192915050565b600160a060020a0391909116815260200190565b600160a060020a03929092168252602082015260400190565b6000600160a060020a038716825285602083015260a060408301526112cd60a083018661122d565b82810360608401526112df818661122d565b91505060ff831660808301529695505050505050565b6000610100600160a060020a03808c1684528a602085015281604085015261131f8285018b61122d565b8481036060860152611331818b61122d565b93505060ff881660808501528660a08501528560c085015280851660e085015250509998505050505050505050565b600160a060020a039384168152919092166020820152604081019190915260600190565b60006060825261139760608301866111ea565b82810360208401526113a981866111ea565b83810360408501526113bb81866111ea565b979650505050505050565b6020808252600d908201527f494e56414c49445f434c41494d00000000000000000000000000000000000000604082015260600190565b60208082526015908201527f4352454154455f4645455f4e4f545f454e4f5547480000000000000000000000604082015260600190565b60208082526010908201527f444f444f5f494e495449414c495a454400000000000000000000000000000000604082015260600190565b60208082526009908201527f4e4f545f4f574e45520000000000000000000000000000000000000000000000604082015260600190565b90815260200190565b600160a060020a03811681146114c057600080fd5b5056fea26469706673582212206bc9935e61dfa58b49ecb14adb3d7b6f8ebb309a31dc18c660c9f71b88e4e81d64736f6c63430006090033",
  "immutableReferences": {
    "177": [
      {
        "length": 32,
        "start": 1590
      },
      {
        "length": 32,
        "start": 2389
      },
      {
        "length": 32,
        "start": 2984
      },
      {
        "length": 32,
        "start": 3849
      }
    ]
  },
  "source": "pragma solidity 0.6.9;\npragma experimental ABIEncoderV2;\n\nimport {ICloneFactory} from \"./CloneFactory.sol\";\n\ncontract InitializableOwnable {\n    address public _OWNER_;\n    address public _NEW_OWNER_;\n    bool internal _INITIALIZED_;\n\n    // ============ Events ============\n\n    event OwnershipTransferPrepared(\n        address indexed previousOwner,\n        address indexed newOwner\n    );\n\n    event OwnershipTransferred(\n        address indexed previousOwner,\n        address indexed newOwner\n    );\n\n    // ============ Modifiers ============\n\n    modifier notInitialized() {\n        require(!_INITIALIZED_, \"DODO_INITIALIZED\");\n        _;\n    }\n\n    modifier onlyOwner() {\n        require(msg.sender == _OWNER_, \"NOT_OWNER\");\n        _;\n    }\n\n    // ============ Functions ============\n\n    function initOwner(address newOwner) public notInitialized {\n        _INITIALIZED_ = true;\n        _OWNER_ = newOwner;\n    }\n\n    function transferOwnership(address newOwner) public onlyOwner {\n        emit OwnershipTransferPrepared(_OWNER_, newOwner);\n        _NEW_OWNER_ = newOwner;\n    }\n\n    function claimOwnership() public {\n        require(msg.sender == _NEW_OWNER_, \"INVALID_CLAIM\");\n        emit OwnershipTransferred(_OWNER_, _NEW_OWNER_);\n        _OWNER_ = _NEW_OWNER_;\n        _NEW_OWNER_ = address(0);\n    }\n}\n\ninterface IStdERC20 {\n    function init(\n        address _creator,\n        uint256 _totalSupply,\n        string memory _name,\n        string memory _symbol,\n        uint8 _decimals\n    ) external;\n}\n\ninterface ICustomERC20 {\n    function init(\n        address _creator,\n        uint256 _initSupply,\n        string memory _name,\n        string memory _symbol,\n        uint8 _decimals,\n        uint256 _tradeBurnRatio,\n        uint256 _tradeFeeRatio,\n        address _team\n    ) external;\n}\n\ncontract ERC20V3Factory is InitializableOwnable {\n    // ============ Templates ============\n\n    address public immutable _CLONE_FACTORY_;\n    address public _ERC20_TEMPLATE_;\n    address public _CUSTOM_ERC20_TEMPLATE_;\n    address public _CUSTOM_MINTABLE_ERC20_TEMPLATE_;\n    uint256 public _CREATE_FEE_;\n\n    // ============ Events ============\n    // 0 Std 1 TradeBurn or TradeFee 2 Mintable\n    event NewERC20(address erc20, address creator, uint256 erc20Type);\n    event ChangeCreateFee(uint256 newFee);\n    event Withdraw(address account, uint256 amount);\n    event ChangeStdTemplate(address newStdTemplate);\n    event ChangeCustomTemplate(address newCustomTemplate);\n    event ChangeCustomMintableTemplate(address newCustomMintableTemplate);\n\n    // ============ Registry ============\n    // creator -> token address list\n    mapping(address => address[]) public _USER_STD_REGISTRY_;\n    mapping(address => address[]) public _USER_CUSTOM_REGISTRY_;\n    mapping(address => address[]) public _USER_CUSTOM_MINTABLE_REGISTRY_;\n\n    // ============ Functions ============\n\n    fallback() external payable {}\n\n    receive() external payable {}\n\n    constructor(\n        address cloneFactory,\n        address erc20Template,\n        address customErc20Template,\n        address customMintableErc20Template,\n        uint256 createFee\n    ) public {\n        _CLONE_FACTORY_ = cloneFactory;\n        _ERC20_TEMPLATE_ = erc20Template;\n        _CUSTOM_ERC20_TEMPLATE_ = customErc20Template;\n        _CUSTOM_MINTABLE_ERC20_TEMPLATE_ = customMintableErc20Template;\n        _CREATE_FEE_ = createFee;\n    }\n\n    function createStdERC20(\n        uint256 totalSupply,\n        string memory name,\n        string memory symbol,\n        uint8 decimals\n    ) external payable returns (address newERC20) {\n        require(msg.value >= _CREATE_FEE_, \"CREATE_FEE_NOT_ENOUGH\");\n        newERC20 = ICloneFactory(_CLONE_FACTORY_).clone(_ERC20_TEMPLATE_);\n        IStdERC20(newERC20).init(\n            msg.sender,\n            totalSupply,\n            name,\n            symbol,\n            decimals\n        );\n        _USER_STD_REGISTRY_[msg.sender].push(newERC20);\n        emit NewERC20(newERC20, msg.sender, 0);\n    }\n\n    function createCustomERC20(\n        uint256 totalSupply,\n        string memory name,\n        string memory symbol,\n        uint8 decimals,\n        uint256 tradeBurnRatio,\n        uint256 tradeFeeRatio,\n        address teamAccount\n    ) external payable returns (address newCustomERC20) {\n        require(msg.value >= _CREATE_FEE_, \"CREATE_FEE_NOT_ENOUGH\");\n        newCustomERC20 = ICloneFactory(_CLONE_FACTORY_).clone(\n            _CUSTOM_ERC20_TEMPLATE_\n        );\n\n        ICustomERC20(newCustomERC20).init(\n            msg.sender,\n            totalSupply,\n            name,\n            symbol,\n            decimals,\n            tradeBurnRatio,\n            tradeFeeRatio,\n            teamAccount\n        );\n\n        _USER_CUSTOM_REGISTRY_[msg.sender].push(newCustomERC20);\n\n        emit NewERC20(newCustomERC20, msg.sender, 1);\n    }\n\n    function createCustomMintableERC20(\n        uint256 initSupply,\n        string memory name,\n        string memory symbol,\n        uint8 decimals,\n        uint256 tradeBurnRatio,\n        uint256 tradeFeeRatio,\n        address teamAccount\n    ) external payable returns (address newCustomMintableERC20) {\n        require(msg.value >= _CREATE_FEE_, \"CREATE_FEE_NOT_ENOUGH\");\n        newCustomMintableERC20 = ICloneFactory(_CLONE_FACTORY_).clone(\n            _CUSTOM_MINTABLE_ERC20_TEMPLATE_\n        );\n\n        ICustomERC20(newCustomMintableERC20).init(\n            msg.sender,\n            initSupply,\n            name,\n            symbol,\n            decimals,\n            tradeBurnRatio,\n            tradeFeeRatio,\n            teamAccount\n        );\n\n        _USER_CUSTOM_MINTABLE_REGISTRY_[msg.sender].push(\n            newCustomMintableERC20\n        );\n\n        emit NewERC20(newCustomMintableERC20, msg.sender, 2);\n    }\n\n    // ============ View ============\n    function getTokenByUser(\n        address user\n    )\n        external\n        view\n        returns (\n            address[] memory stds,\n            address[] memory customs,\n            address[] memory mintables\n        )\n    {\n        return (\n            _USER_STD_REGISTRY_[user],\n            _USER_CUSTOM_REGISTRY_[user],\n            _USER_CUSTOM_MINTABLE_REGISTRY_[user]\n        );\n    }\n\n    // ============ Ownable =============\n    function changeCreateFee(uint256 newFee) external onlyOwner {\n        _CREATE_FEE_ = newFee;\n        emit ChangeCreateFee(newFee);\n    }\n\n    function withdraw() external onlyOwner {\n        uint256 amount = address(this).balance;\n        msg.sender.transfer(amount);\n        emit Withdraw(msg.sender, amount);\n    }\n\n    function updateStdTemplate(address newStdTemplate) external onlyOwner {\n        _ERC20_TEMPLATE_ = newStdTemplate;\n        emit ChangeStdTemplate(newStdTemplate);\n    }\n\n    function updateCustomTemplate(\n        address newCustomTemplate\n    ) external onlyOwner {\n        _CUSTOM_ERC20_TEMPLATE_ = newCustomTemplate;\n        emit ChangeCustomTemplate(newCustomTemplate);\n    }\n\n    function updateCustomMintableTemplate(\n        address newCustomMintableTemplate\n    ) external onlyOwner {\n        _CUSTOM_MINTABLE_ERC20_TEMPLATE_ = newCustomMintableTemplate;\n        emit ChangeCustomMintableTemplate(newCustomMintableTemplate);\n    }\n}\n",
  "sourcePath": "/home/zt/github.com/erc20-factory/contracts/ERC20Factory.sol",
  "compiler": {
    "name": "solc",
    "version": "0.6.9+commit.3e3065ac.Emscripten.clang"
  },
  "schemaVersion": "3.4.13",
  "updatedAt": "2023-04-25T14:46:40.165Z",
  "devdoc": {
    "methods": {}
  },
  "userdoc": {
    "methods": {}
  }
}