{
  "contractName": "ERC20Template",
  "abi": [
    {
      "inputs": [
        {
          "internalType": "string",
          "name": "_name",
          "type": "string"
        },
        {
          "internalType": "string",
          "name": "_symbol",
          "type": "string"
        },
        {
          "internalType": "uint8",
          "name": "_decimals",
          "type": "uint8"
        }
      ],
      "stateMutability": "nonpayable",
      "type": "constructor"
    },
    {
      "anonymous": false,
      "inputs": [
        {
          "indexed": true,
          "internalType": "address",
          "name": "owner",
          "type": "address"
        },
        {
          "indexed": true,
          "internalType": "address",
          "name": "spender",
          "type": "address"
        },
        {
          "indexed": false,
          "internalType": "uint256",
          "name": "amount",
          "type": "uint256"
        }
      ],
      "name": "Approval",
      "type": "event"
    },
    {
      "anonymous": false,
      "inputs": [
        {
          "indexed": true,
          "internalType": "address",
          "name": "from",
          "type": "address"
        },
        {
          "indexed": true,
          "internalType": "address",
          "name": "to",
          "type": "address"
        },
        {
          "indexed": false,
          "internalType": "uint256",
          "name": "amount",
          "type": "uint256"
        }
      ],
      "name": "Transfer",
      "type": "event"
    },
    {
      "inputs": [],
      "name": "decimals",
      "outputs": [
        {
          "internalType": "uint8",
          "name": "",
          "type": "uint8"
        }
      ],
      "stateMutability": "view",
      "type": "function"
    },
    {
      "inputs": [],
      "name": "name",
      "outputs": [
        {
          "internalType": "string",
          "name": "",
          "type": "string"
        }
      ],
      "stateMutability": "view",
      "type": "function"
    },
    {
      "inputs": [],
      "name": "symbol",
      "outputs": [
        {
          "internalType": "string",
          "name": "",
          "type": "string"
        }
      ],
      "stateMutability": "view",
      "type": "function"
    },
    {
      "inputs": [
        {
          "internalType": "address",
          "name": "to",
          "type": "address"
        },
        {
          "internalType": "uint256",
          "name": "amount",
          "type": "uint256"
        }
      ],
      "name": "transfer",
      "outputs": [
        {
          "internalType": "bool",
          "name": "",
          "type": "bool"
        }
      ],
      "stateMutability": "nonpayable",
      "type": "function"
    },
    {
      "inputs": [
        {
          "internalType": "address",
          "name": "owner",
          "type": "address"
        }
      ],
      "name": "balanceOf",
      "outputs": [
        {
          "internalType": "uint256",
          "name": "balance",
          "type": "uint256"
        }
      ],
      "stateMutability": "view",
      "type": "function"
    },
    {
      "inputs": [
        {
          "internalType": "address",
          "name": "from",
          "type": "address"
        },
        {
          "internalType": "address",
          "name": "to",
          "type": "address"
        },
        {
          "internalType": "uint256",
          "name": "amount",
          "type": "uint256"
        }
      ],
      "name": "transferFrom",
      "outputs": [
        {
          "internalType": "bool",
          "name": "",
          "type": "bool"
        }
      ],
      "stateMutability": "nonpayable",
      "type": "function"
    },
    {
      "inputs": [
        {
          "internalType": "address",
          "name": "spender",
          "type": "address"
        },
        {
          "internalType": "uint256",
          "name": "amount",
          "type": "uint256"
        }
      ],
      "name": "approve",
      "outputs": [
        {
          "internalType": "bool",
          "name": "",
          "type": "bool"
        }
      ],
      "stateMutability": "nonpayable",
      "type": "function"
    },
    {
      "inputs": [
        {
          "internalType": "address",
          "name": "owner",
          "type": "address"
        },
        {
          "internalType": "address",
          "name": "spender",
          "type": "address"
        }
      ],
      "name": "allowance",
      "outputs": [
        {
          "internalType": "uint256",
          "name": "",
          "type": "uint256"
        }
      ],
      "stateMutability": "view",
      "type": "function"
    },
    {
      "inputs": [
        {
          "internalType": "address",
          "name": "account",
          "type": "address"
        },
        {
          "internalType": "uint256",
          "name": "amount",
          "type": "uint256"
        }
      ],
      "name": "mint",
      "outputs": [],
      "stateMutability": "nonpayable",
      "type": "function"
    }
  ],
  "bytecode": "0x60806040523480156200001157600080fd5b5060405162000bdf38038062000bdf833981810160405260608110156200003757600080fd5b81019080805160405193929190846401000000008211156200005857600080fd5b9083019060208201858111156200006e57600080fd5b82516401000000008111828201881017156200008957600080fd5b82525081516020918201929091019080838360005b83811015620000b85781810151838201526020016200009e565b50505050905090810190601f168015620000e65780820380516001836020036101000a031916815260200191505b50604052602001805160405193929190846401000000008211156200010a57600080fd5b9083019060208201858111156200012057600080fd5b82516401000000008111828201881017156200013b57600080fd5b82525081516020918201929091019080838360005b838110156200016a57818101518382015260200162000150565b50505050905090810190601f168015620001985780820380516001836020036101000a031916815260200191505b506040526020908101518551909350620001b99250600091860190620001ed565b508151620001cf906001906020850190620001ed565b506002805460ff191660ff9290921691909117905550620002929050565b828054600181600116156101000203166002900490600052602060002090601f016020900481019282601f106200023057805160ff191683800117855562000260565b8280016001018555821562000260579182015b828111156200026057825182559160200191906001019062000243565b506200026e92915062000272565b5090565b6200028f91905b808211156200026e576000815560010162000279565b90565b61093d80620002a26000396000f3fe608060405234801561001057600080fd5b50600436106100b0576000357c01000000000000000000000000000000000000000000000000000000009004806340c10f191161008357806340c10f19146101c657806370a08231146101f457806395d89b411461022c578063a9059cbb14610234578063dd62ed3e14610260576100b0565b806306fdde03146100b5578063095ea7b31461013257806323b872dd14610172578063313ce567146101a8575b600080fd5b6100bd61028e565b6040805160208082528351818301528351919283929083019185019080838360005b838110156100f75781810151838201526020016100df565b50505050905090810190601f1680156101245780820380516001836020036101000a031916815260200191505b509250505060405180910390f35b61015e6004803603604081101561014857600080fd5b50600160a060020a03813516906020013561031c565b604080519115158252519081900360200190f35b61015e6004803603606081101561018857600080fd5b50600160a060020a03813581169160208101359091169060400135610382565b6101b06105da565b6040805160ff9092168252519081900360200190f35b6101f2600480360360408110156101dc57600080fd5b50600160a060020a0381351690602001356105e3565b005b61021a6004803603602081101561020a57600080fd5b5035600160a060020a031661062c565b60408051918252519081900360200190f35b6100bd610647565b61015e6004803603604081101561024a57600080fd5b50600160a060020a0381351690602001356106a1565b61021a6004803603604081101561027657600080fd5b50600160a060020a0381358116916020013516610818565b6000805460408051602060026001851615610100026000190190941693909304601f810184900484028201840190925281815292918301828280156103145780601f106102e957610100808354040283529160200191610314565b820191906000526020600020905b8154815290600101906020018083116102f757829003601f168201915b505050505081565b336000818152600460209081526040808320600160a060020a038716808552908352818420869055815186815291519394909390927f8c5be1e5ebec7d5bd14f71427d1e84f3dd0314c0f7b2291e5b200ac8c7c3b925928290030190a350600192915050565b6000600160a060020a0383166103e2576040805160e560020a62461bcd02815260206004820152601360248201527f544f5f414444524553535f49535f454d50545900000000000000000000000000604482015290519081900360640190fd5b600160a060020a038416600090815260036020526040902054821115610452576040805160e560020a62461bcd02815260206004820152601260248201527f42414c414e43455f4e4f545f454e4f5547480000000000000000000000000000604482015290519081900360640190fd5b600160a060020a03841660009081526004602090815260408083203384529091529020548211156104cd576040805160e560020a62461bcd02815260206004820152601460248201527f414c4c4f57414e43455f4e4f545f454e4f554748000000000000000000000000604482015290519081900360640190fd5b600160a060020a0384166000908152600360205260409020546104f6908363ffffffff61084316565b600160a060020a03808616600090815260036020526040808220939093559085168152205461052b908363ffffffff6108a316565b600160a060020a03808516600090815260036020908152604080832094909455918716815260048252828120338252909152205461056f908363ffffffff61084316565b600160a060020a03808616600081815260046020908152604080832033845282529182902094909455805186815290519287169391927fddf252ad1be2c89b69c2b068fc378daa952ba7f163c4a11628f55a4df523b3ef929181900390910190a35060019392505050565b60025460ff1681565b600160a060020a03821660009081526003602052604090205461060c908263ffffffff6108a316565b600160a060020a0390921660009081526003602052604090209190915550565b600160a060020a031660009081526003602052604090205490565b60018054604080516020600284861615610100026000190190941693909304601f810184900484028201840190925281815292918301828280156103145780601f106102e957610100808354040283529160200191610314565b6000600160a060020a038316610701576040805160e560020a62461bcd02815260206004820152601360248201527f544f5f414444524553535f49535f454d50545900000000000000000000000000604482015290519081900360640190fd5b33600090815260036020526040902054821115610768576040805160e560020a62461bcd02815260206004820152601260248201527f42414c414e43455f4e4f545f454e4f5547480000000000000000000000000000604482015290519081900360640190fd5b33600090815260036020526040902054610788908363ffffffff61084316565b3360009081526003602052604080822092909255600160a060020a038516815220546107ba908363ffffffff6108a316565b600160a060020a0384166000818152600360209081526040918290209390935580518581529051919233927fddf252ad1be2c89b69c2b068fc378daa952ba7f163c4a11628f55a4df523b3ef9281900390910190a350600192915050565b600160a060020a03918216600090815260046020908152604080832093909416825291909152205490565b60008282111561089d576040805160e560020a62461bcd02815260206004820152600960248201527f5355425f4552524f520000000000000000000000000000000000000000000000604482015290519081900360640190fd5b50900390565b600082820183811015610900576040805160e560020a62461bcd02815260206004820152600960248201527f4144445f4552524f520000000000000000000000000000000000000000000000604482015290519081900360640190fd5b939250505056fea26469706673582212208b7b9ab84eff8bb378a27ba4019dcbafa59cf26841e503faa397448cdd1c8b1864736f6c63430006090033",
  "immutableReferences": {},
  "source": "pragma solidity 0.6.9;\n\n/**\n * @title SafeMath\n * @author DODO Breeder\n *\n * @notice Math operations with safety checks that revert on error\n */\nlibrary SafeMath {\n    function mul(uint256 a, uint256 b) internal pure returns (uint256) {\n        if (a == 0) {\n            return 0;\n        }\n\n        uint256 c = a * b;\n        require(c / a == b, \"MUL_ERROR\");\n\n        return c;\n    }\n\n    function div(uint256 a, uint256 b) internal pure returns (uint256) {\n        require(b > 0, \"DIVIDING_ERROR\");\n        return a / b;\n    }\n\n    function divCeil(uint256 a, uint256 b) internal pure returns (uint256) {\n        uint256 quotient = div(a, b);\n        uint256 remainder = a - quotient * b;\n        if (remainder > 0) {\n            return quotient + 1;\n        } else {\n            return quotient;\n        }\n    }\n\n    function sub(uint256 a, uint256 b) internal pure returns (uint256) {\n        require(b <= a, \"SUB_ERROR\");\n        return a - b;\n    }\n\n    function add(uint256 a, uint256 b) internal pure returns (uint256) {\n        uint256 c = a + b;\n        require(c >= a, \"ADD_ERROR\");\n        return c;\n    }\n\n    function sqrt(uint256 x) internal pure returns (uint256 y) {\n        uint256 z = x / 2 + 1;\n        y = x;\n        while (z < y) {\n            y = z;\n            z = (x / z + z) / 2;\n        }\n    }\n}\n\ncontract ERC20Template {\n    using SafeMath for uint256;\n\n    string public name;\n    string public symbol;\n    uint8 public decimals;\n\n    mapping(address => uint256) balances;\n    mapping(address => mapping(address => uint256)) internal allowed;\n\n    event Transfer(address indexed from, address indexed to, uint256 amount);\n    event Approval(\n        address indexed owner,\n        address indexed spender,\n        uint256 amount\n    );\n\n    constructor(\n        string memory _name,\n        string memory _symbol,\n        uint8 _decimals\n    ) public {\n        name = _name;\n        symbol = _symbol;\n        decimals = _decimals;\n    }\n\n    function transfer(address to, uint256 amount) public returns (bool) {\n        require(to != address(0), \"TO_ADDRESS_IS_EMPTY\");\n        require(amount <= balances[msg.sender], \"BALANCE_NOT_ENOUGH\");\n\n        balances[msg.sender] = balances[msg.sender].sub(amount);\n        balances[to] = balances[to].add(amount);\n        emit Transfer(msg.sender, to, amount);\n        return true;\n    }\n\n    function balanceOf(address owner) public view returns (uint256 balance) {\n        return balances[owner];\n    }\n\n    function transferFrom(\n        address from,\n        address to,\n        uint256 amount\n    ) public returns (bool) {\n        require(to != address(0), \"TO_ADDRESS_IS_EMPTY\");\n        require(amount <= balances[from], \"BALANCE_NOT_ENOUGH\");\n        require(amount <= allowed[from][msg.sender], \"ALLOWANCE_NOT_ENOUGH\");\n\n        balances[from] = balances[from].sub(amount);\n        balances[to] = balances[to].add(amount);\n        allowed[from][msg.sender] = allowed[from][msg.sender].sub(amount);\n        emit Transfer(from, to, amount);\n        return true;\n    }\n\n    function approve(address spender, uint256 amount) public returns (bool) {\n        allowed[msg.sender][spender] = amount;\n        emit Approval(msg.sender, spender, amount);\n        return true;\n    }\n\n    function allowance(\n        address owner,\n        address spender\n    ) public view returns (uint256) {\n        return allowed[owner][spender];\n    }\n\n    function mint(address account, uint256 amount) external {\n        balances[account] = balances[account].add(amount);\n    }\n}\n",
  "sourcePath": "/home/zt/github.com/erc20-factory/contracts/ERC20Template.sol",
  "compiler": {
    "name": "solc",
    "version": "0.6.9+commit.3e3065ac.Emscripten.clang"
  },
  "schemaVersion": "3.4.13",
  "updatedAt": "2023-04-25T14:46:40.173Z",
  "devdoc": {
    "methods": {}
  },
  "userdoc": {
    "methods": {}
  }
}